:02000000292BAA
:10000800FF00030E83010317AE000A08AF008A0140
:1000180070080313A0000B1C5D28061E1828013069
:10002800D0000030D1001A28D001D101861E212825
:100038000130E3000030E4002328E301E401061F57
:100048002A280130E5000030E6002C28E501E60109
:10005800861F33280130DF000030E0003528DF013B
:10006800E00100305106031D3B2801305006031DF6
:100078005A2800306406031D432801306306031D17
:100088005A2800306606031D4B2801306506031DFB
:100098005A2800306006031D532801305F06031DEF
:1000A8005A280130E1000030E2005C28E101E20159
:1000B8000B108B1C6A28061C66280130A100003032
:1000C800A2006828A101A2018B100B120B1D7E282B
:1000D8000B1106308100A30A0319A40A0030240674
:1000E800031D78280A302306031D7E280130E70007
:1000F8000030E8002008F00003172F088A002E0EB1
:080108008300FF0E7F0E0900C9
:0401100000000800E3
:10011400083083120313FC002330FD00FD0B9028EC
:06012400FC0B902808000E
:10012A00103083120313FD00FD0B9928000008000C
:10013A0083120317BE1BA42803130810A62803134F
:10014A00081403173E1BAC2803138810AE280313A8
:10015A0088140317BE1AB42803130811B628031308
:10016A00081503173E1ABC2803138811BE28031367
:10017A00881503171B18C42803138816C6280313E7
:10018A0088120816882008120317BE19CF280313ED
:10019A000810D1280313081403173E19D72803138C
:1001AA008810D928031388140317BE18DF280313ED
:1001BA000811E1280313081503173E18E72803134B
:1001CA008811E9280313881503171B18EF2803134E
:1001DA008816F128031388120816882008120317B4
:0C01EA001B1CF9288A20FA289520080028
:1001F60083120313F801F9011030FC00710DF80D9C
:10020600F90D7408F8027508031C750FF902031836
:1002160013297408F80775080318750FF9070310F2
:0A022600F00DF10DFC0B012908009A
:0E023000073083120313FD00FD0B1C2908008C
:10023E0083120313FB01FA01F9018030F800F10C6F
:10024E00F00C031C33297408F90775080318750F91
:10025E00FA070318FB0A0310F01F3B297408FA076C
:10026E0075080318750FFB07FB0CFA0CF90CF80C4C
:10027E00031C26297B08F3007A08F2007908F100A6
:06028E007808F0000800F2
:10029400831203171B103908BE009D2003171B147B
:0202A400080050
:0E02A600831203172D088A002C08820008001E
:1002B40083120317BC0105303C02031868293C086B
:1002C4003B07840020308000BC0A5D293C083B07C2
:1002D40084008001BC033C083B07BD000A30F400E5
:1002E400F5013908F0003A08F100FB207808F00025
:1002F4007908F1003030F00703173D0884007008D6
:1003040080000A30F400F5013908F0003A08F100E1
:10031400FB2070080317B9007108BA000030710699
:10032400031D962900307006031D99299B29BC03DF
:040334006D29080027
:10033800831603131208013EF000F1010318F10AB5
:10034800831203173008F400F5011F210630F2006C
:100358007008F4007108F50072080319B829F50C43
:10036800F40CF513FF3EB1290430F1007408F000D5
:1003780071080319C329F00D7010FF3EBD293030F4
:100388007005F3007408F0007508F100F10CF00C2A
:10039800F113F10CF00CF113700895000F3097056C
:0603A80073089704080031
:1003AE0083120317B501B6013008B7003108B80043
:1003BE0080303106F00080307002031DE8290030D5
:1003CE0030020318F6290130B5000030B6003008AF
:1003DE00003CB7003108031C013EB801B8023708D3
:1003EE00B9003808BA003208BB005A210630B300F3
:1003FE000030B4003408003C031D072A3308003CCB
:10040E000318222A33083207F20001303302F000BB
:10041E000030031C013E3402F100700832078400E4
:10042E000008F00072088400700880000130B302EA
:10043E00031CB403012A32088400203080003508E2
:10044E0036040319402AB301B4013308320784007D
:10045E000008203A031D372AB30A0319B40A2C2ABE
:10046E000130B302031CB4033308320784002D306D
:04047E0080000800F2
:10048200FF30831203179800FF309900FF309A0063
:10049200FF3003139F01C0309F046B09F000700806
:0E04A20083169F051F179F1783121F14080053
:1004B000831203139F01C0309F046B09F000700882
:1004C00083169F051F179F17831203173008F0002C
:1004D000F00D7010F00D7010F00D70107008031317
:1004E0009F041F1418211F151F1D782A0000742A4D
:1004F0001F101E08F100F00183161E08F0040030E2
:04050000F1040800FA
:100504008312031730088D0083168C130C14831286
:060514000C08F0000800D5
:10051A00831603130812881288110811881008100C
:10052A0083120812881208108810081188118A206C
:10053A008A208A20081588150816882008128A2019
:10054A000816882008128A200816882008128A208D
:10055A0088110816882008128A200816882008128E
:10056A00081108140816882008128A20081088150D
:10057A0008168820081288110816882008128A206E
:10058A0008168820081288150816882008128A205A
:10059A008811081688200812081488140815881566
:0E05AA000816882008128A2003171B14080068
:1005B800EE2A803083120317B000012BC030B00040
:1005C800012B9430B000012BD430B000012B8030C7
:1005D800B000012B831203173008013A0319DD2AF2
:1005E8003008023A0319E22A3008033A0319E52AC7
:1005F8003008043A0319E82AEB2A3103F0003008DE
:10060800F0077008B0007008BE009D2003171B108B
:10061800B301330832078400000803191B2B330881
:10062800320784000008B9004A21B30A0D2B1B14B5
:020638000800B8
:10063A0053218A110A128000840AAC0A0319AD0AEE
:08064A00F003031D1D2B080045
:10065200AC26F1308316031386008610D030870053
:100662008712880183129F0187010813C7308316FE
:10067200810098308B008B1606308312810003179D
:10068200B001822270080313D200D3018D220130FF
:10069200BE009D200C300317BE009D2001300317C1
:1006A200B0000130B1005430B200DC220230B000A0
:1006B2000130B1004530B200DC220430831603134E
:1006C2008500412200305106031D692B013050067E
:1006D200031D6D2B07146E2B071000306406031DDB
:1006E200742B01306306031D782B8714792B871036
:1006F20000306606031D7F2B01306506031D832B28
:100702000715842B071100306006031D8A2B013068
:100712005F06031D8E2B87158F2B87110030620613
:10072200031D952B01306106031DB62B0130031703
:10073200BE009D200C300317BE009D200130031720
:10074200B0000130B1003530B200DC220630FB00CF
:100752001330FC00AD30FD00FD0BAD2BFC0BAD2BBF
:10076200FB0BAD2B00000000B92B0313E101E201EA
:10077200031300302206031DC02B01302106031D86
:10078200D52DA301A4018B1601302402031DCB2B0E
:10079200F43023020318B82DE101E20101300317FE
:1007A200B0000130B1002530B200DC220313071083
:1007B2008710071187110330FB008A30FC00553087
:1007C200FD00FD0BE22BFC0BE22BFB0BE22B0000EE
:1007D200000007148714071587150330FB008A30C1
:1007E200FC005530FD00FD0BF42BFC0BF42BFB0B36
:1007F200F42B0000000002300317B00058227008EA
:10080200EC007108ED007108033C031D0A2C70080E
:10081200E83C0318102CE830EC000330ED006C08C3
:10082200F0006D08F1006430F4000030F5001F2183
:100832005830F4000230F500FB2070088316EE00F9
:100842007108EF00023083120317B0000130B100CB
:10085200C530B200DC22831603136E08831203171D
:10086200B000831603136F0883120317B1001C3004
:10087200B200D7210230B0000830B1001C30B20003
:10088200DC220230B0000E30B1006C30B200DC224B
:10089200831603136F08003C031D512C6E08003CA5
:1008A2000318652C6E08F0006F08F100FF30F400A9
:1008B200F5011F216430F4000030F500FB207008C0
:1008C2000317B0009C21692C83120317B0019C21ED
:1008D20083166F08003C031D702C6E08143C031C29
:1008E200CC2C83126F08003C031D792C6E08143C3B
:1008F2000318CC2C01300317BE009D2001300317D2
:10090200B0000130B100DE30B200DC2283160313E6
:100912006E088312EE0083166F088312EF00023016
:100922000317B0000130B1001030B200DC220230F7
:10093200B0000830B1001C30B200DC220230B0003E
:100942000E30B100CD30B200DC2203130710871045
:10095200071187110330FB008A30FC005530FD007F
:10096200FD0BB12CFC0BB12CFB0BB12C00000000D9
:1009720007148714071587150330FB008A30FC0023
:100982005530FD00FD0BC32CFC0BC32CFB0BC32C01
:1009920000000000692C83166F08003C031DD32C55
:1009A2006E08503C0318192D83126F08003C031D7A
:1009B200DC2C6E08503C031C192D01300317BE00BD
:1009C2009D2001300317B0000130B100CF30B200DA
:1009D200DC220230B0000130B100BD30B200DC22B6
:1009E2000230B0000830B1001C30B200DC2202300C
:1009F200B0000E30B1006930B200DC22031387165A
:100A02000B30FB002630FC005D30FD00FD0B072D96
:100A1200FC0B072DFB0B072D00000000871283162D
:100A22006E088312EE0083166F088312EF00CC2C3F
:100A32008312071E502D081388170230FB00043062
:100A4200FC00BA30FD00FD0B242DFC0B242DFB0B0A
:100A5200242D000007108710071187110330FB00B7
:100A62008A30FC005530FD00FD0B352DFC0B352D79
:100A7200FB0B352D0000000007148714071587159E
:100A82000330FB008A30FC005530FD00FD0B472D82
:100A9200FC0B472DFB0B472D00000000782D071A99
:100AA200782D081788130710871007118711033054
:100AB200FB008A30FC005530FD00FD0B5E2DFC0B67
:100AC2005E2DFB0B5E2D0000000007148714071536
:100AD20087150330FB008A30FC005530FD00FD0B0A
:100AE200702DFC0B702DFB0B702D00000000061802
:100AF2007C2D08138813071FB72D01300317BE0082
:100B02009D2001300317B0000130B100AC30B200BB
:100B1200DC2203130813881386140630FB001330FB
:100B2200FC00AD30FD00FD0B942DFC0B942DFB0B56
:100B3200942D0000000086108230FC00DD30FD00A4
:100B4200FD0BA12DFC0BA12D0000000087160B3020
:100B5200FB002630FC005D30FD00FD0BAE2DFC0BD2
:100B6200AE2DFB0BAE2D000000007C2DC52B8B1291
:100B72000130E7000030E80001300317BE009D207D
:100B82000C300317BE009D2001300317B000013066
:100B9200B100A030B200DC22031307108710071146
:100BA200871108138813D72DE701E8010030680682
:100BB200031DDD2D01306706031D012E87160B3044
:100BC200FB002630FC005D30FD00FD0BE62DFC0B2A
:100BD200E62DFB0BE62D0000000087120430FA0020
:100BE200F730FB009A30FC009A30FD00FD0BF72D28
:100BF200FC0BF72DFB0BF72DFA0BF72D0000022E45
:060C02008712632B032E94
:100D580021308400483083120313F0000930031750
:100D6800AC000630AD001D23A03084000C30831287
:100D7800F00089300317AC000630AD001D23693040
:100D8800840002308312F000A9300317AC0006304B
:100D9800AD001D23AC30840011308312F000783090
:100DA8000317AC000630AD001D236B308400013002
:100DB8008312F00003300317AC000030AD001D2390
:100DC800BD30840008308312F0009D300317AC005A
:100DD8000630AD001D236C30840004308312F0000F
:100DE800A5300317AC000630AD001D23C5308400C4
:100DF80027308312F00051300317AC000630AD00E5
:100E08001D2310308317840008308312F0009530BA
:0E0E18000317AC000630AD001D238313080045
:020006000F34B5
:040C12000034003476
:040C16000034003472
:100C1A0045344E34203443344F34553452345334EB
:100C2A0020344434553420344A344534553400345D
:100C3A0020345034453455345834203443344F34F6
:100C4A004D344D3445344E344334453452340034F3
:100C5A00203420344D3441344E34453447344534FD
:060C6A00203420340034A8
:040C70000034003418
:040C74000034003414
:100C780042344F344E344A344F345534523420348D
:060C880041345534003434
:040C8E0000340034FA
:040C920000340034F6
:040C960000340034F2
:040C9A0000340034EE
:040C9E0000340034EA
:100CA200533470346534653464343A342034003457
:040CB20025340034B1
:100CB60041344C344534523454344534203456345B
:0E0CC6004934543445345334533445340034E7
:100CD400563449345434453453345334453420342D
:0C0CE4004C3445344E3454344534003454
:100CF000533459345334543445344D34453420340A
:100D000045344E342034503441344E344E3445341E
:020D10000034AD
:100D12004A344534553420345434453452344D34F5
:080D220049344E34453400341D
:100D2A00533470346534653464343A3420340034CE
:100D3A00533470346534653464343A3420340034BE
:040D4A002534003418
:040D4E00FF3400343A
:040D52002534003410
:02400E007A3BFB
:00000001FF
